:1000000072C000009FC000009DC000009BC00000A7
:1000100099C0000097C0000095C0000093C0000088
:1000200091C000008FC000008DC000008BC0000098
:1000300089C0000087C0000085C0000083C00000A8
:1000400081C000007FC000007DC000007BC00000B8
:1000500079C0000077C0000075C0000092C20000A7
:1000600071C0000058C200002DC200006BC000002B
:1000700069C0000067C0000065C0000063C00000E8
:1000800061C000005FC000005DC000005BC00000F8
:1000900059C0000057C0000055C0000053C0000008
:1000A00051C000004FC000004DC000004BC0000018
:1000B00049C0000047C0000045C0000043C0000028
:1000C00041C000003FC000003DC000003BC0000038
:1000D00039C0000037C0000035C0000033C0000048
:1000E00031C000000B0311241FBECFEFD1E2DEBFF1
:1000F000CDBF00E00CBF12E0A0E0B2E0ECECF1E11B
:1001000000E00BBF02C007900D92A631B107D9F7EE
:1001100022E0A6E1B2E001C01D92A23CB207E1F7E5
:1001200010E0C3E7D0E000E005C021970109802F6F
:10013000FE0111D7C237D10780E00807B1F7ACD272
:100140000C94E4085DCFFC01918D828D981761F0CD
:10015000828DDF01A80FB11D5D968C91928D9F5FFE
:100160009F73928F90E008958FEF9FEF0895FC01A9
:10017000918D828D981731F0828DE80FF11D858D5C
:1001800090E008958FEF9FEF0895FC01918D228DEF
:10019000892F90E0805C9F4F821B91098F73992774
:1001A0000895FC01848DDF01A80FB11DA35ABF4F34
:1001B0002C91848D90E001968F739927848FA68966
:1001C000B7892C93A089B1898C9180648C93938D8D
:1001D000848D981306C00288F389E02D80818F7D7D
:1001E00080830895EF92FF920F931F93CF93DF9335
:1001F000EC0181E0888F9B8D8C8D981305C0E88978
:10020000F989808185FD23C0F62E0B8D10E00F5FEC
:100210001F4F0F731127E02E8C8DE8120BC00FB605
:1002200007FCFACFE889F989808185FFF5CFCE01F7
:10023000B8DFF2CF8B8DFE01E80FF11DE35AFF4FBF
:10024000F0820B8FEA89FB898081806207C0EE898A
:10025000FF896083E889F98980818064808381E0F7
:1002600090E0DF91CF911F910F91FF90EF90089553
:10027000CF93DF93EC01888D8823C1F0EA89FB8955
:10028000808185FD05C0A889B9898C9186FD0EC045
:100290000FB607FCF5CF808185FFF2CFA889B98919
:1002A0008C9185FFEDCFCE017CDFE8CFDF91CF9140
:1002B00008958FE192E069DF21E0892B09F420E0C5
:1002C000822F089580E090E0892B19F0F2DF8111F0
:1002D00025C080E090E0892B41F080E090E0892B00
:1002E00021F00E94000081111CC080E090E0892B69
:1002F00041F080E090E0892B21F00E940000811104
:1003000013C080E090E0892BA1F080E090E0892B81
:1003100081F00E94000081110AC008950E9400002F
:10032000D8CF0E940000E1CF0E940000EACF0C94D9
:1003300000000895CF92DF92EF92FF920F931F93E8
:10034000CF93DF936C017A018B01C0E0D0E0CE1532
:10035000DF0589F0D8016D918D01D601ED91FC91F9
:100360000190F081E02DC6011995892B11F47E01D1
:1003700002C02196ECCFC701DF91CF911F910F9161
:10038000FF90EF90DF90CF9008950F931F93CF933E
:10039000DF93EC018B0184E090E0E5D5FC01892B33
:1003A000A9F011830083138212828A819B81892B99
:1003B00019F4FB83EA8306C0A881B9811396FC93E4
:1003C000EE931297F983E88381E001C080E0DF912A
:1003D000CF911F910F9108950F931F93CF93DF93A8
:1003E000EC018B0184E090E0BED5FC01892BA9F0E3
:1003F00011830083138212828E819F81892B19F4CD
:10040000FF83EE8306C0A885B9851396FC93EE930F
:100410001297F987E88781E001C080E0DF91CF91F2
:100420001F910F9108950F931F93CF93DF93EC01CA
:100430008B0184E090E097D5FC01892BA9F0118312
:100440000083138212828A859B85892B19F4FB878E
:10045000EA8706C0A885B9851396FC93EE93129798
:10046000F987E88781E001C080E0DF91CF911F919B
:100470000F9108950F931F93CF93DF93EC018B019E
:1004800084E090E070D5FC01892BA9F011830083F2
:10049000138212828A819B81892B19F4FB83EA8360
:1004A00006C0A881B9811396FC93EE931297F98345
:1004B000E88381E001C080E0DF91CF911F910F912F
:1004C00008957ED61F920F920FB60F9211240BB68D
:1004D0000F922F933F934F935F936F937F938F93DD
:1004E0009F93AF93BF93EF93FF938FE192E059DE19
:1004F000FF91EF91BF91AF919F918F917F916F91FC
:100500005F914F913F912F910F900BBE0F900FBEB7
:100510000F901F9018951F920F920FB60F921124F3
:100520000BB60F922F938F939F93EF93FF93E091CE
:100530002F02F09130028081E0913502F091360275
:1005400082FD12C09081809138028F5F8F7320915D
:100550003902821751F0E0913802F0E0E15EFD4F80
:10056000958F8093380201C08081FF91EF919F9118
:100570008F912F910F900BBE0F900FBE0F901F9079
:1005800018951F920F920FB60F9211242F933F933D
:100590008F939F93AF93BF9380911B0290911C0206
:1005A000A0911D02B0911E0230911A0223E0230F88
:1005B0002D3720F40196A11DB11D05C026E8230F9B
:1005C0000296A11DB11D20931A0280931B029093E5
:1005D0001C02A0931D02B0931E02809116029091FE
:1005E0001702A0911802B09119020196A11DB11D28
:1005F0008093160290931702A0931802B0931902E9
:10060000BF91AF919F918F913F912F910F900FBE0E
:100610000F901F901895EFE1F2E01382128288EE9E
:1006200093E0A0E0B0E084839583A683B7838AE05B
:1006300092E09183808385EC90E09587848784ECB9
:1006400090E09787868780EC90E0918B808B81EC9F
:1006500090E0938B828B82EC90E0958B848B86EC80
:1006600090E0978B868B118E128E138E148E8CE0F9
:1006700090E079D4FC0113821282118210821782D9
:100680001682158214821386128611861086909324
:10069000BD028093BC020895CF93DF93CDB7DEB740
:1006A00066970FB6F894DEBF0FBECDBF789484B5C1
:1006B000826084BD84B5816084BD85B5826085BD5E
:1006C00085B5816085BD80916E00816080936E00EC
:1006D00010928100809181008260809381008091DE
:1006E000810081608093810080918000816080938F
:1006F00080008091B10084608093B1008091B0004F
:1007000081608093B000809191008260809391001D
:100710008091910081608093910080919000816030
:10072000809390008091A10082608093A1008091CD
:10073000A10081608093A1008091A00081608093DE
:10074000A00080912101826080932101809121018C
:10075000816080932101809120018160809320013C
:1007600080917A00846080937A0080917A00826020
:1007700080937A0080917A00816080937A008091E2
:100780007A00806880937A001092C1008AE090E03D
:10079000EAD38C01E1E0F0E0DC011196FC93EE93EA
:1007A00017961C921E92169719961C921E921897D5
:1007B00084E190E0D8D39C838B83DC011D921D9251
:1007C0001D921C921397FC011482158216821782C7
:1007D00080E090E0A0E2B1E480879187A287B387B0
:1007E00080E090E0A0E6B1E484879587A687B7878C
:1007F000108A118A128A138ABF01C801EDDD84E1D3
:1008000090E0B1D39E838D8380E090E0A0E4B1E4DA
:10081000ED81FE8180839183A283B38380E090E0A9
:10082000A0E8B1E484839583A683B78380E090E059
:10083000A0E9B1E480879187A287B387812C912CAE
:1008400020EBA22E21E4B22E84869586A686B7865A
:10085000108A118A128A138ABF01C801BDDD84E1A2
:1008600090E081D33C01C12CD12C30EAE32E31E45D
:10087000F32EDC01CD92DD92ED92FC92139780E095
:1008800090E0A0ECB1E4F30184839583A683B78361
:1008900080E090E0A0EFB1E480879187A287B387E2
:1008A00084879587A687B787108A118A128A138A48
:1008B000B301C80191DD2090BC023090BD02B801A7
:1008C000C101D8DD8AE090E04ED38C0182E090E057
:1008D000F80191838083178216821186108684E145
:1008E00090E041D32C01DC01CD92DD92ED92FC929F
:1008F0001397FC01C482D582E682F78218968D9206
:100900009D92AD92BC921B9780E090E0A8ECB1E480
:1009100084879587A687B787108A118A128A138AD7
:10092000B201C80159DD84E190E01DD398878F831F
:10093000FC0180829182A282B38220E030E048EB09
:1009400051E4248335834683578380E090E0A8EC0C
:10095000B1E480879187A287B38780E090E0A8ED1B
:10096000B1E484879587A687B787108A118A128A8F
:10097000138ABF01C801298B3A8B4B8B5C8B2CDD12
:1009800084E190E0F0D29A87898780E090E0A8EC3B
:10099000B1E4E985FA8580839183A283B38380E003
:1009A00090E0A8EEB1E484839583A683B78380E0CA
:1009B00090E0A0E0B2E480879187A287B387848724
:1009C0009587A687B787108A118A128A138ABF0172
:1009D000C80102DDB801C1014DDD8EE090E0C3D257
:1009E0008C0181E090E0F801918380831782168268
:1009F00011861086138612861586148684E190E08F
:100A0000B2D29C878B8780E090E0A0E7B1E4EB85D1
:100A1000FC8580839183A283B38380E090E0A8E883
:100A2000B1E484839583A683B78380879187A28767
:100A3000B38780E090E0A8E9B1E484879587A68732
:100A4000B787108A118A128A138ABF01C801C4DCD1
:100A500084E190E088D29A83898380E090E0A0E9E5
:100A6000B1E4E981FA8180839183A283B383C48254
:100A7000D582E682F782C086D186E286F3868486B6
:100A80009586A686B786108A118A128A138ABF01B4
:100A9000C801A2DC84E190E066D29E878D87DC01EC
:100AA000CD92DD92ED92FC92139729893A894B8978
:100AB0005C89FC01248335834683578318962D93E4
:100AC0003D934D935C931B9780E090E0A8ECB1E4DC
:100AD00084879587A687B787108A118A128A138A16
:100AE000BF01C80179DC84E090E03DD29E8B8D8B04
:100AF000009709F456C0FC0111830083138212820F
:100B0000D8011696BC91BF87F801F781F88BEB2EC0
:100B1000FF2EE114F10469F10F8518890115110503
:100B200011F1D8011296CD90DC901397C114D10425
:100B3000C1F0AD90BC90F60180809180D4012D91E0
:100B40003D914D915C91F50160817181828193812C
:100B5000DAD1181634F4D8018D929C92F601B18244
:100B6000A0828601DBCFD7011296ED90FC901397FF
:100B7000D0CFF10186819781892B39F48D899E89A7
:100B800097838683958384830CC0D1010480F5818B
:100B9000E02D8D899E899383828315969C938E93F5
:100BA00014978CE090E0DFD16C01DC0111961C926F
:100BB0001E9213961C921E92129715961C921E92CC
:100BC000149717961C921E92169719961C921E92B5
:100BD00018971B961C921E921A9761147104A9F023
:100BE000E981FA81309789F082E090E011969C9338
:100BF0008E9313969C938E93129715967C926E9279
:100C000014971796FC93EE9316978CE090E0ABD177
:100C10007C01DC0111961C921E9213961C921E926E
:100C2000129715961C921E92149717961C921E925C
:100C3000169719961C921E9218971B961C921E923C
:100C40001A97E985FA85309751F081E090E0139684
:100C50009C938E9312971596FC93EE9314978CE0C9
:100C600090E081D18C01DC0111961C921E921396AA
:100C70001C921E92129715961C921E92149717960C
:100C80001C921E92169719961C921E9218971B96EC
:100C90001C921E921A97C114D104B1F0E114F10410
:100CA00099F081E090E011969C938E9384E090E01F
:100CB00013969C938E9312971996DC92CE92189766
:100CC0001B96FC92EE921A9784E090E04CD16C0156
:100CD000FC0113821282118210826B857C8555DBA8
:100CE00087E090E040D1FC01EE24E394F12CF18206
:100CF000E08214830383D682C5821282BF01C101C0
:100D000092DB8CE090E02FD16C01DC0111961C92FB
:100D10001E9213961C921E92129715961C921E926A
:100D2000149717961C921E92169719961C921E9253
:100D300018971B961C921E921A97EF81F885309790
:100D400041F01396FC92EE9212971596FC93EE9357
:100D5000149784E090E007D18C01DC0113961C927B
:100D60001E9212971D921C9269817A810EDB87E098
:100D700090E0F9D0FC0182E0E82EF12CF182E082D3
:100D8000D482C382168305831282BF01C1014BDB6B
:100D90008CE090E0E8D06C01FC011182108213829B
:100DA000128215821482178216821186108613868B
:100DB00012866114710469F04114510451F081E00C
:100DC00090E091838083F382E2827582648257820D
:100DD000468287E090E0C7D0FC0183E090E09183F9
:100DE0008083D482C382168305831282BF01C1012E
:100DF0001ADB8CE090E0B7D07C01DC0111961C92EC
:100E00001E9213961C921E92129715961C921E9279
:100E1000149717961C921E92169719961C921E9262
:100E200018971B961C921E921A97EB81FC813097A3
:100E3000B9F08D819E81892B99F082E090E0119626
:100E40009C938E9313969C938E9312971596FC9376
:100E5000EE931497ED81FE811796FC93EE9316970F
:100E60008CE090E080D08C01DC0111961C921E92E7
:100E700013961C921E92129715961C921E9214970E
:100E800017961C921E92169719961C921E921897EE
:100E90001B961C921E921A9741145104B1F0E11452
:100EA000F10499F081E090E011969C938E9383E099
:100EB00090E013969C938E93129715965C924E92A7
:100EC00014971996FC92EE92189784E090E04BD01C
:100ED0007C01FC0113821282118210826D857E8555
:100EE00054DA87E090E03FD0FC0184E090E0918309
:100EF000808314830383F682E5821282BF01C101DD
:100F000092DAE0D9FECF03D008F48FEF0895990F5D
:100F10000008550FAA0BE0E8FEEF16161706E807C3
:100F2000F907C0F012161306E407F50798F0621BE4
:100F3000730B840B950B39F40A2661F0232B242BB9
:100F4000252B21F408950A2609F4A140A6958FEFD8
:100F5000811D811D0895EE0FFF1F881F8BBF079015
:100F6000F691E02D1994CF93DF938230910510F420
:100F700082E090E0E091C002F091C10220E030E018
:100F8000C0E0D0E0309711F14081518148175907F6
:100F9000C0F04817590761F482819381209719F0B6
:100FA0009B838A832BC09093C1028093C00226C08A
:100FB0002115310519F04217530718F49A01BE01A3
:100FC000DF01EF010280F381E02DDCCF2115310537
:100FD00009F1281B390B2430310590F412968D91BC
:100FE0009C9113976115710521F0FB019383828316
:100FF00004C09093C1028093C002FD01329644C0A8
:10100000FD01E20FF31F81939193225031092D933B
:101010003C933AC02091BE023091BF02232B41F491
:1010200020910202309103023093BF022093BE024E
:1010300020910002309101022115310541F42DB7B4
:101040003EB74091040250910502241B350BE091FC
:10105000BE02F091BF02E217F307A0F42E1B3F0B74
:101060002817390778F0AC014E5F5F4F241735071A
:1010700048F04E0F5F1F5093BF024093BE02819312
:10108000919302C0E0E0F0E0CF01DF91CF910895AD
:101090000F931F93CF93DF93009709F48CC0FC014B
:1010A0003297138212820091C0021091C102011581
:1010B000110581F420813181820F931F2091BE029E
:1010C0003091BF022817390779F5F093BF02E093FA
:1010D000BE0271C0D80140E050E0AE17BF0750F427
:1010E00012962D913C911397AD012115310509F10F
:1010F000D901F3CF9D01DA013383228360817181AD
:10110000860F971F8217930769F4EC0128813981B4
:10111000260F371F2E5F3F4F318320838A819B81AB
:1011200093838283452B29F4F093C102E093C0029C
:1011300042C01396FC93EE931297ED014991599199
:101140009E01240F351FE217F30771F4808191810E
:10115000840F951F029611969C938E9382819381A2
:1011600013969C938E931297E0E0F0E0D8011296CC
:101170008D919C911397009719F0F8018C01F6CF8F
:101180008D919C9198012E5F3F4F820F931F20916C
:10119000BE023091BF022817390769F4309729F44D
:1011A0001092C1021092C00202C0138212821093E8
:1011B000BF020093BE02DF91CF911F910F9108955E
:0C11C00081E090E0F89400C0F894FFCFAC
:1011CC000000C202800000000000F2009A01C5007D
:0611DC00A300B70038017A
:00000001FF
